{
  "contractName": "Voting",
  "abi": [
    {
      "constant": true,
      "inputs": [
        {
          "name": "",
          "type": "uint256"
        }
      ],
      "name": "choiceList",
      "outputs": [
        {
          "name": "",
          "type": "bytes32"
        }
      ],
      "payable": false,
      "stateMutability": "view",
      "type": "function"
    },
    {
      "constant": true,
      "inputs": [
        {
          "name": "",
          "type": "bytes32"
        }
      ],
      "name": "votesReceived",
      "outputs": [
        {
          "name": "",
          "type": "uint8"
        }
      ],
      "payable": false,
      "stateMutability": "view",
      "type": "function"
    },
    {
      "inputs": [
        {
          "name": "choiceNames",
          "type": "bytes32[]"
        }
      ],
      "payable": false,
      "stateMutability": "nonpayable",
      "type": "constructor"
    },
    {
      "constant": false,
      "inputs": [
        {
          "name": "choice",
          "type": "bytes32"
        }
      ],
      "name": "totalVotesFor",
      "outputs": [
        {
          "name": "",
          "type": "uint8"
        }
      ],
      "payable": false,
      "stateMutability": "nonpayable",
      "type": "function"
    },
    {
      "constant": false,
      "inputs": [
        {
          "name": "choice",
          "type": "bytes32"
        }
      ],
      "name": "voteForChoice",
      "outputs": [],
      "payable": false,
      "stateMutability": "nonpayable",
      "type": "function"
    },
    {
      "constant": false,
      "inputs": [
        {
          "name": "choice",
          "type": "bytes32"
        }
      ],
      "name": "validChoice",
      "outputs": [
        {
          "name": "",
          "type": "bool"
        }
      ],
      "payable": false,
      "stateMutability": "nonpayable",
      "type": "function"
    }
  ],
  "bytecode": "0x6060604052341561000f57600080fd5b6040516103e53803806103e5833981016040528080518201919050508060019080519060200190610041929190610048565b50506100c0565b82805482825590600052602060002090810192821561008a579160200282015b82811115610089578251829060001916905591602001919060010190610068565b5b509050610097919061009b565b5090565b6100bd91905b808211156100b95760008160009055506001016100a1565b5090565b90565b610316806100cf6000396000f30060606040526004361061006d576000357c0100000000000000000000000000000000000000000000000000000000900463ffffffff1680632f265cf714610072578063684908bd146100b35780637021939f146100f2578063bbadf36314610133578063d723178a14610172575b600080fd5b341561007d57600080fd5b610097600480803560001916906020019091905050610199565b604051808260ff1660ff16815260200191505060405180910390f35b34156100be57600080fd5b6100d460048080359060200190919050506101e3565b60405180826000191660001916815260200191505060405180910390f35b34156100fd57600080fd5b610117600480803560001916906020019091905050610207565b604051808260ff1660ff16815260200191505060405180910390f35b341561013e57600080fd5b610158600480803560001916906020019091905050610227565b604051808215151515815260200191505060405180910390f35b341561017d57600080fd5b610197600480803560001916906020019091905050610287565b005b60008015156101a783610227565b151514156101b457600080fd5b600080836000191660001916815260200190815260200160002060009054906101000a900460ff169050919050565b6001818154811015156101f257fe5b90600052602060002090016000915090505481565b60006020528060005260406000206000915054906101000a900460ff1681565b600080600090505b60018054905081101561027c57826000191660018281548110151561025057fe5b90600052602060002090015460001916141561026f5760019150610281565b808060010191505061022f565b600091505b50919050565b6000151561029482610227565b151514156102a157600080fd5b6001600080836000191660001916815260200190815260200160002060008282829054906101000a900460ff160192506101000a81548160ff021916908360ff160217905550505600a165627a7a723058202ed0baa5212f03882ded5a812122e9de949bfffd74a7e0b13fa47bdb887449c00029",
  "source": "pragma solidity ^0.4.11;\n// We have to specify what version of compiler this code will compile with\n\ncontract Voting {\n  /* mapping field below is equivalent to an associative array or hash.\n  The key of the mapping is candidate name stored as type bytes32 and value is\n  an unsigned integer to store the vote count\n  */\n\n  mapping (bytes32 => uint8) public votesReceived;\n\n  /* Solidity doesn't let you pass in an array of strings in the constructor (yet).\n  We will use an array of bytes32 instead to store the list of candidates\n  */\n\n  bytes32[] public choiceList;\n\n  /* This is the constructor which will be called once when you\n  deploy the contract to the blockchain. When we deploy the contract,\n  we will pass an array of candidates who will be contesting in the election\n  */\n  function Voting(bytes32[] choiceNames) {\n    choiceList = choiceNames;\n  }\n\n  // This function returns the total votes a candidate has received so far\n  function totalVotesFor(bytes32 choice) returns (uint8) {\n    if (validChoice(choice) == false) throw;\n    return votesReceived[choice];\n  }\n\n  // This function increments the vote count for the specified candidate. This\n  // is equivalent to casting a vote\n  function voteForChoice(bytes32 choice) {\n    if (validChoice(choice) == false) throw;\n    votesReceived[choice] += 1;\n  }\n\n  function validChoice(bytes32 choice) returns (bool) {\n    for(uint i = 0; i < choiceList.length; i++) {\n      if (choiceList[i] == choice) {\n        return true;\n      }\n    }\n    return false;\n  }\n}\n",
  "sourcePath": "/Users/dandanbang/Desktop/blockchain/voting/contracts/choice_voting.sol",
  "compiler": {
    "name": "solc",
    "version": "0.4.21+commit.dfe3193c.Emscripten.clang"
  },
  "schemaVersion": "2.0.0",
  "updatedAt": "2018-04-17T21:06:08.773Z"
}